:1000000013C06AC096C034C033C032C031C030C0E3
:100010002FC058C22DC052C12BC02AC029C028C031
:1000200027C026C025C0260811241FBECFE5D4E076
:10003000DEBFCDBF11E0A0E6B0E0ECEEF5E102C01E
:1000400005900D92A432B107D9F711E0A4E2B1E016
:1000500001C01D92A63CB107E1F710E0C8E2D0E074
:1000600003C02297FE0175DAC632D107D1F792C2DA
:10007000C7CF8230E8F4E82FFF27EE0FFF1FEC5DBB
:10008000FE4F71836083882341F485B78C7F842B76
:1000900085BF8BB780648BBF089585B7837F440F7E
:1000A000551F440F551F842B85BF8BB780688BBFAE
:1000B0000895E82F823078F4882319F48BB78F7B6A
:1000C00002C08BB78F778BBFFF27EE0FFF1FEC5D52
:1000D000FE4F1182108208951F920F920FB60F9259
:1000E00011242F933F934F935F936F937F938F933D
:1000F0009F93AF93BF93EF93FF93809124019091CF
:100100002501892B29F0E0912401F0912501099521
:10011000FF91EF91BF91AF919F918F917F916F91DF
:100120005F914F913F912F910F900FBE0F901F90B5
:1001300018951F920F920FB60F9211242F933F9391
:100140004F935F936F937F938F939F93AF93BF93DF
:10015000EF93FF938091260190912701892B29F03D
:10016000E0912601F09127010995FF91EF91BF9150
:10017000AF919F918F917F916F915F914F913F913F
:100180002F910F900FBE0F901F901895880F991FF9
:10019000880F991FE0919800F0919900E80FF91FDE
:1001A000808191810895880F991F880F991FE09190
:1001B0009800F0919900E80FF91F828193810895CA
:1001C000880F991FE0917A00F0917B00E80FF91FEA
:1001D000808191810895880F991F880F991FE09160
:1001E0006000F0916100E80FF91F8281938108950A
:1001F000EF92FF920F931F937B018C0122E030E07E
:1002000040E050E075D9205C3D4B404F5F4FCA0144
:10021000B901A80197016CD92150304040405040AD
:10022000BB2757FDBA95A52F942F832F2F5F3F4FE4
:100230004F4F5F4F80BD215029B9549A539A579A16
:100240001F910F91FF90EF9008955D9BFECF8CB9A9
:10025000089580912A0190912B01209128013091DD
:100260002901821B930B60E870E00DD9089540913D
:1002700028015091290180912A0190912B01841726
:10028000950719F48FEF9FEF0895FA01EC5BFE4F8D
:100290002081CA01019660E870E0F5D890932901A9
:1002A00080932801822F99270895809128019091A9
:1002B000290190932B0180932A0108951F920F9298
:1002C0000FB60F9211242F933F934F935F936F9329
:1002D0007F938F939F93AF93BF93EF93FF934CB113
:1002E000E0912A01F0912B01CF01019660E870E0C6
:1002F000CAD89C01809128019091290128173907BB
:1003000039F0EC5BFE4F408330932B0120932A01A0
:10031000FF91EF91BF91AF919F918F917F916F91DD
:100320005F914F913F912F910F900FBE0F901F90B3
:10033000189508958ADF08958AE0FCDF0895CF9329
:10034000DF93EC0102C02196F5DF88818823D9F77D
:10035000DF91CF9108952F923F924F925F926F92CB
:100360007F928F929F92AF92BF92CF92DF92EF9245
:10037000FF920F931F93CF93DF93CDB7DEB7A09774
:100380000FB6F894DEBF0FBECDBF6B017C01190123
:100390002A01611571058105910519F480E3CADF11
:1003A00048C06624772443015E010894A11CB11C57
:1003B0008501060D171DC701B601A201910176D86E
:1003C000F80160830894611C711C811C911CC70199
:1003D000B601A20191016AD869017A01211531059E
:1003E0004105510529F773010894E108F108EA0C69
:1003F000FB1CAA24BB24650110C0F70180818A3050
:1004000010F4805D01C0895C95DF0894A108B108F3
:10041000C108D1080894E108F10888279927DC0170
:1004200086199709A809B909A816B906CA06DB06EC
:1004300021F7A0960FB6F894DEBF0FBECDBFDF91B7
:10044000CF911F910F91FF90EF90DF90CF90BF90D1
:10045000AF909F908F907F906F905F904F903F9064
:100460002F900895EF92FF920F931F937B018C01C1
:1004700097FF0AC08DE25EDF10950095F094E0943E
:10048000E11CF11C011D111D2AE030E040E050E0AC
:10049000C801B70160DF1F910F91FF90EF900895A1
:1004A00020E130E040E050E056DF089528E030E001
:1004B00040E050E050DF089522E030E040E050E0BE
:1004C0004ADF08951F920F920FB60F9211248F9357
:1004D0009F93AF93BF938091400190914101A09170
:1004E0004201B09143010196A11DB11D80934001CD
:1004F00090934101A0934201B0934301BF91AF910A
:100500009F918F910F900FBE0F901F901895609143
:100510004001709141018091420190914301E7E0D7
:10052000660F771F881F991FEA95D1F72DE730E0F6
:1005300040E050E0BBD7CA01B9010895AF92BF9225
:10054000CF92DF92EF92FF920F931F935B016C01AA
:10055000DEDF7B018C01DBDF6E197F09800B910BE5
:100560006A157B058C059D05B0F31F910F91FF90D7
:10057000EF90DF90CF90BF90AF900895019749F032
:10058000880F991F880F991F0297F8940197F1F728
:1005900078940895CFE5D4E0DEBFCDBF7894109273
:1005A000400110924101109242011092430183B721
:1005B000826083BF83B7816083BF89B7816089BF51
:1005C0008EB582608EBD8EB581608EBD8FB5816027
:1005D0008FBD85B5846085BD85B5806485BD3F9838
:1005E0003E9A329A319A309A379A1AB848D353D4ED
:1005F000FECFCF93DF93880F991F880F991FA0918B
:100600009800B0919900A80FB91FED91FC91119736
:10061000309731F1EE0FFF1FED014A815B81672BAF
:1006200081F4EA51FF4F0190F081E02D20A181E09B
:1006300090E002C0880F991F4A95E2F78095282321
:100640000EC0EA51FF4F0190F081E02D20A181E022
:1006500090E002C0880F991F4A95E2F7282B20A34B
:10066000DF91CF910895CF93DF939C01880F991F5D
:10067000880F991FA0919800B0919900A80FB91FF9
:100680004D915C9111974115510509F444C0220F19
:10069000331FE0917A00F0917B00E20FF31F01908D
:1006A000F081E02DE230F10519F48FB58F7705C0A8
:1006B000E330F10521F48FB58F7D8FBD05C03497F0
:1006C00019F485B58F7D85BDFA01EE0FFF1FED0191
:1006D0004A815B81672B81F4E452FF4F0190F081E6
:1006E000E02D20A181E090E002C0880F991F4A957B
:1006F000E2F7809528230EC0E452FF4F0190F0816D
:10070000E02D20A181E090E002C0880F991F4A955A
:10071000E2F7282B20A3DF91CF9108959F92AF920B
:10072000BF92CF92DF92EF92FF920F931F93CF93DE
:10073000DF936C017B015A01922EC0E0D0E007E00C
:1007400010E0692D7727A114B10439F40C2E02C0F2
:10075000759567950A94E2F706C0002E02C075955C
:1007600067950A94E2F761707070C6017CDF61E002
:1007700070E0C70178DF60E070E0C70174DF2196A8
:1007800001501040C830D105E1F6DF91CF911F91A3
:100790000F91FF90EF90DF90CF90BF90AF909F9020
:1007A00008950F931F93CF93DF93EC018B0161E0CA
:1007B00070E01FDFCE01880F991FE0917A00F09161
:1007C0007B00E80FF91F0190F081E02DE230F10588
:1007D00031F48FB580688FBD1BBD0ABD1AC0E330F0
:1007E000F10531F48FB580628FBD19BD08BD11C010
:1007F000349729F485B5806285BD03BD0AC00038F1
:1008000011051CF460E070E002C061E070E0CE0110
:100810002ADFDF91CF911F910F910895CF93DF933E
:100820009C01880F991F880F991FC0919800D09143
:100830009900C80FD91FA881B981109719F480E0D9
:1008400090E02DC0220F331FE0917A00F0917B00E1
:10085000E20FF31F0190F081E02DE230F10519F471
:100860008FB58F7705C0E330F10521F48FB58F7D0B
:100870008FBD05C0349719F485B58F7D85BDAA0F4E
:10088000BB1FAE52BF4FED91FC9180A199270A800A
:1008900002C0959587950A94E2F781709070DF9178
:1008A000CF910895CF93DF93880F991F880F991FD9
:1008B000A0919800B0919900A80FB91FED91FC91FB
:1008C0001197EE0FFF1FEE52FF4F0190F081E02DC8
:1008D000ED018A819B81A1E0B0E0082E02C0AA0F41
:1008E000BB1F0A94E2F720E030E0672B11F021E013
:1008F00030E0B90102C0660F771F8A95E2F7EF0179
:10090000A09680A199278A239B2386179707C9F76A
:1009100020E030E040E050E004C02F5F3F4F4F4FF9
:100920005F4F888199278A239B2386179707A9F30E
:10093000CA01B90124E130E040E050E085D527E16B
:1009400030E040E050E0B2D5CA01B901DF91CF916B
:10095000089527B1207F880F991F880F991FE09174
:100960006000F0916100E80FF91F82818F70282BE1
:1009700027B961E070E080E090E0E0DD369A3699DA
:10098000FECF24B185B19927982F88273327822B52
:10099000932B08954AE050E060E070E0EAD30895B8
:1009A00010923E0110923D011092390110923A01CD
:1009B00010923B0110923C0160E070E08091F000E9
:1009C0009091F10050DE089580913D0190913E019B
:1009D0008130910571F1823091051CF4892B41F031
:1009E00008958230910599F1039709F099C041C0AB
:1009F00080912C018823B1F48091F8009091F90046
:100A0000AA2797FDA095BA2F2091390130913A017C
:100A100040913B0150913C0182179307A407B50711
:100A20000CF07EC069E48FE391E078D284E090E03E
:100A30001BC06BE48FE391E071D260911E01709155
:100A40001F018FE391E06DD285E090E00DC063E57A
:100A50008FE391E063D260910701709108018FE309
:100A600091E05FD286E090E090933E0180933D015B
:100A700008958091390190913A01A0913B01B09184
:100A80003C01181619061A061B0624F564E58FE3C7
:100A900091E044D260E070E08091F0009091F1002C
:100AA000E2DD8091390190913A01A0913B01B09132
:100AB0003C010197A109B1098093390190933A0152
:100AC000A0933B01B0933C0187E090E090933E01FE
:100AD00080933D011CDD2091310130913201621B78
:100AE000730B9B0116161706DCF4442737FD40955F
:100AF000542F8091FE009091FF00A0910001B091D1
:100B0000010182179307A407B50754F461E58FE349
:100B100091E004D287E090E090933E0180933D0104
:100B2000089581E090E090933E0180933D0160E064
:100B300070E08091F0009091F10095DD089582E0E1
:100B400090E090933E0180933D0160E070E08091E1
:100B5000F0009091F10087DD089523E030E03093BC
:100B60003E0120933D018823D1F0D1DC6093350113
:100B7000709336018093370190933801C8DC6093FD
:100B800031017093320180933301909334011092BC
:100B9000390110923A0110923B0110923C0161E040
:100BA00070E08091F0009091F1005DDD0895EF928A
:100BB000FF920F931F93CF93DF938091F600909154
:100BC000F7002CDEEC018091F4009091F50026DE18
:100BD0000197A1F5219791F59ADC9B01AC018091D9
:100BE000310190913201A0913301B091340179012A
:100BF0008A01E81AF90A0A0B1B0BD801C7010B97E7
:100C0000A105B105DCF08091390190913A01A091E4
:100C10003B01B0913C010196A11DB11D80933901AA
:100C200090933A01A0933B01B0933C012093310192
:100C3000309332014093330150933401DF91CF91CF
:100C40001F910F91FF90EF900895CF93DF93C0E035
:100C5000D0E0BE0160957095617070708091F00079
:100C60009091F10000DD68EC70E080E090E066DCDF
:100C70002196CA30D10569F7DF91CF91089560E0E0
:100C800070E08091F6009091F700B3DC61E070E0D5
:100C90008091F0009091F100ACDC60E07BE480E0BA
:100CA00090E0A6DA7DDED1DF8091F60043E050E0EF
:100CB00067ED75E08250DDD90895EF92FF920F93B2
:100CC0001F93CF93DF93CDB7DEB7A2970FB6F894FB
:100CD000DEBF0FBECDBF8FE391E019D18FE391E06E
:100CE00019D1182F14DC60932D0170932E0180937D
:100CF0002F0190933001153611F0113709F450DEB1
:100D000080913D0190913E018530910541F1863001
:100D1000910524F4049709F0B0C00CC08630910509
:100D200099F1079709F0A9C09FC065E070E080E0E5
:100D300090E004DC8FE391E0EAD08823B1F38FE305
:100D400091E0E8D0803309F498C0813309F096C06F
:100D5000E8DE94C065E070E080E090E0EFDB8FE3D8
:100D600091E0D5D08823B1F38FE391E0D3D08033E5
:100D700009F483C0813309F081C0E1DE7FC065E002
:100D800070E080E090E0DADB8FE391E0C0D0882370
:100D9000B1F38FE391E0BED0803309F46EC08133AC
:100DA00009F06CC005C065E070E080E090E0C6DB53
:100DB0008FE391E0ACD08823B1F300E010E005C0F0
:100DC00064E170E080E090E0B9DB8FE391E09FD0D8
:100DD0008823B1F38FE391E09DD0FE01E00FF11F76
:100DE000828B0F5F1F4F013111057CF342E050E011
:100DF000BE016D5E7F4FCE0101960FD31B8284E052
:100E0000E82EF12CEC0EFD1E46E050E0BE016A5EBD
:100E10007F4FC70102D31A868E01055F1F4F46E040
:100E200050E0BE01635E7F4FC801F7D2198ACE0140
:100E30000196C7D29093F9008093F800C701AADD0C
:100E40006093FE007093FF00809300019093010176
:100E5000C801A0DD6093FA007093FB008093FC0052
:100E60009093FD0081E007C01F3639F0113729F05B
:100E7000143721F480E071DE01C092DDA2960FB636
:100E8000F894DEBF0FBECDBFDF91CF911F910F91C0
:100E9000FF90EF90089598DD8FE391E038D08111B5
:100EA0000CDF80913D0190913E010497049740F53D
:100EB0002EDB20912D0130912E0140912F01509178
:100EC0003001621B730B840B950B2091FA0030915B
:100ED000FB004091FC005091FD00261737074807A2
:100EE000590770F463E48FE391E018D010DB60934E
:100EF0002D0170932E0180932F019093300150DDCE
:100F0000089508950895CB01BA0172D90895A1D921
:100F100099270895ACD90895C8D90895862F0ADA7B
:100F20000895CB010CDA0895862F04DA08950F9303
:100F30001F938C016DE0F2DF6AE0C801EFDF1F91C3
:100F40000F9108950F931F938C01E8DFC801EFDF25
:100F50001F910F9108950F931F938C01E2DFC80139
:100F6000E6DF1F910F9108950F931F938C01DCDF33
:100F7000C801DDDF1F910F910895CB01BA0133271E
:100F800044275527E8D908952AE0F7DF08950F93FD
:100F90001F938C01F9DFC801CADF1F910F910895DB
:100FA000AB0166277727F0DF0895EF92FF920F934A
:100FB0001F93CF93DF93EC017A018B0177FF0AC077
:100FC0006DE2ACDF10950095F094E094E11CF11C0B
:100FD000011D111D2AE0B801A701CE01CEDFDF916E
:100FE000CF911F910F91FF90EF9008950F931F9352
:100FF0008C01DBDFC8019BDF1F910F910895211544
:10100000310519F4642F8ADF08952A30310511F46F
:10101000CCDF0895B2DF08950F931F938C01EFDFAB
:10102000C80185DF1F910F910895AB01662757FD19
:101030006095762FBADF08950F931F938C01F5DF2B
:10104000C80175DF1F910F910895089508950097C5
:1010500009F084D00895EF92FF920F931F937B01C4
:101060008C01611571058105910529F460E070E03E
:1010700080E090E00AC06ED0AA2797FDA095BA2F15
:10108000BC01CD01A801970133D21F910F91FF90B0
:10109000EF900895EF92FF920F931F937B018C01C5
:1010A00062177307840795075CF4261B370B480B00
:1010B000590BCA01B901CFDFE60EF71E081F191F31
:1010C000C801B7011F910F91FF90EF900895A0E024
:1010D000B0E0ECE6F8E05BC2EC01E880F9800A8160
:1010E0001B81C801B7012DE133EF41E050E0DED1B3
:1010F00027EA31E440E050E0A7D15B016C01C80170
:10110000B7012DE133EF41E050E0D0D1CA01B90180
:1011100024E13BE040E050E097D1A61AB70AC80AA4
:10112000D90A1A141B041C041D0444F08FEF9FEF0E
:10113000AFEFBFE7A80EB91ECA1EDB1EA882B98298
:10114000CA82DB82C5019F77EAE0CDB7DEB73BC23A
:10115000BEDF089580E291E0BADF0895AA27BB2799
:101160008093200190932101A0932201B093230149
:1011700008952F923F924F925F926F927F928F923B
:101180009F92AF92BF92DF92EF92FF920F931F93C5
:10119000CF93DF937C011B018A016115710519F062
:1011A000FB01918380830115110549F0C801029765
:1011B000839728F060E070E080E090E0F0C0E70105
:1011C000D9908D2D9927C9D1892B11F07E01F7CFA8
:1011D000FDE2DF1631F4D880E701229661E0E62EC9
:1011E00007C08BE2D81619F4D880E7012296EE24C6
:1011F0000115110519F000311105C1F4E0E3DE1607
:1012000061F48881883711F0883539F4D9802296C5
:10121000F2E0EF2A00E110E029C00115110531F4D8
:1012200080E3D81649F10AE010E017C00830110534
:1012300029F10930110524F40230110529F507C000
:101240000A30110551F000311105F1F40FC0812C65
:10125000912CA12C50E4B52E23C04CEC842E4CECE8
:10126000942E4CECA42E4CE0B42E1AC0812C912C60
:10127000A12C38E0B32E14C008E010E0812C912C92
:10128000A12C20E1B22E0CC09801442737FD4095D7
:10129000542F60E070E080E090E808D149015A01E5
:1012A00020E030E040E050E060E02801662457FC98
:1012B0006094762C8D2D80538A3010F4F82E0EC059
:1012C0008D2D81548A3118F499ECF92E06C08D2D9C
:1012D00081568A3138F589EAF82EFD0C8F2D992731
:1012E00080179107FCF467FD1BC082169306A406C5
:1012F000B506A8F0CA01B901A3019201A5D09B01CE
:10130000AC012F0D311D411D511D2130E0E03E0784
:10131000E0E04E07E0E85E0710F461E001C06FEF27
:10132000D990C8CF2114310471F0662329F0219798
:10133000F101D183C08307C0E1FE19C02297F101FA
:10134000D183C08314C067FF12C0E0FE05C020E057
:1013500030E040E050E804C02FEF3FEF4FEF5FE791
:1013600082E290E09093C5018093C40116C0E0FE34
:1013700008C050954095309521953F4F4F4F5F4F96
:101380000CC057FF0AC082E290E09093C5018093A1
:10139000C4012FEF3FEF4FEF5FE7CA01B901DF91C3
:1013A000CF911F910F91FF90EF90DF90BF90AF9082
:1013B0009F908F907F906F905F904F903F902F9075
:1013C0000895FC0188279927E89421912223E9F0C8
:1013D0002032D9F32930C9F32A30B9F32C30A9F3DC
:1013E0002D3099F3263789F32B3219F02D3221F461
:1013F00068942191222349F020333CF02A332CF4C5
:1014000020531AD0820F911DF4CF8115910521F040
:101410001EF48095909501960895FB01DC014150E2
:10142000504048F001900D920020C9F701C01D9274
:1014300041505040E0F708957AE0979F902D879FA4
:10144000802D910D11240895629FD001739FF001AA
:10145000829FE00DF11D649FE00DF11D929FF00D44
:10146000839FF00D749FF00D659FF00D9927729F7B
:10147000B00DE11DF91F639FB00DE11DF91FBD0106
:10148000CF011124089597FB092E07260AD077FD76
:1014900004D049D006D000201AF4709561957F4F92
:1014A0000895F6F7909581959F4F0895A1E21A2E21
:1014B000AA1BBB1BFD010DC0AA1FBB1FEE1FFF1FF8
:1014C000A217B307E407F50720F0A21BB30BE40B48
:1014D000F50B661F771F881F991F1A9469F760958F
:1014E0007095809590959B01AC01BD01CF01089549
:1014F00097FB092E05260ED057FD04D0D7DF0AD062
:10150000001C38F450954095309521953F4F4F4F32
:101510005F4F0895F6F790958095709561957F4F90
:101520008F4F9F4F0895AA1BBB1B51E107C0AA1FF5
:10153000BB1FA617B70710F0A61BB70B881F991F74
:101540005A95A9F780959095BC01CD010895EE0FAD
:10155000FF1F0590F491E02D099491110DC0803288
:1015600051F08A3041F08C3031F08D3021F08930EB
:1015700011F08B3099F708959927882708952F92B5
:101580003F924F925F926F927F928F929F92AF9213
:10159000BF92CF92DF92EF92FF920F931F93CF9360
:1015A000DF93CDB7DEB7CA1BDB0B0FB6F894DEBFF7
:1015B0000FBECDBF09942A88398848885F846E841D
:1015C0007D848C849B84AA84B984C884DF80EE8067
:1015D000FD800C811B81AA81B981CE0FD11D0FB670
:0C15E000F894DEBF0FBECDBFED010895F2
:1015EC00620003000000030001000300020003007E
:1015FC00030003000400030005007C00FFFFFFFF55
:10160C00FFFFFFFFFFFFFFFFFFFFFFFFFFFF0200DA
:10161C0003000400FFFFFFFF9A0004000000040019
:10162C000100040002000400030004000400040094
:10163C000500040006000400070002000000020080
:10164C00010002000200020003000200040002007C
:10165C000500FFFFFFFF160013001000FFFFFFFF48
:10166C00180015001200FFFFFFFF170014001100F7
:10167C000D000500030002000A00C0D4010020BFC9
:10168C000200303033350002015A5A5A5A5A5A5A0B
:10169C005A5A5A5A5A5A5A5A5A5A5A5A5A000901A2
:0416AC000100000039
:00000001FF
